{
  "contractName": "Auction",
  "abi": [
    {
      "inputs": [
        {
          "internalType": "uint256",
          "name": "_maxPrice",
          "type": "uint256"
        },
        {
          "internalType": "string",
          "name": "_currency",
          "type": "string"
        },
        {
          "internalType": "string",
          "name": "_requirementsURI",
          "type": "string"
        },
        {
          "internalType": "string",
          "name": "_requirementsHash",
          "type": "string"
        },
        {
          "internalType": "address",
          "name": "_auctionOwner",
          "type": "address"
        },
        {
          "internalType": "uint256",
          "name": "_duration",
          "type": "uint256"
        }
      ],
      "payable": false,
      "stateMutability": "nonpayable",
      "type": "constructor"
    },
    {
      "constant": false,
      "inputs": [
        {
          "internalType": "uint256",
          "name": "_price",
          "type": "uint256"
        },
        {
          "internalType": "enum Auction.ProviderAsset",
          "name": "_pa",
          "type": "uint8"
        }
      ],
      "name": "placeBid",
      "outputs": [],
      "payable": false,
      "stateMutability": "nonpayable",
      "type": "function"
    },
    {
      "constant": false,
      "inputs": [
        {
          "internalType": "uint256",
          "name": "_price",
          "type": "uint256"
        }
      ],
      "name": "modifyBid",
      "outputs": [],
      "payable": false,
      "stateMutability": "nonpayable",
      "type": "function"
    },
    {
      "constant": true,
      "inputs": [
        {
          "internalType": "enum Auction.ProviderAsset",
          "name": "_pa",
          "type": "uint8"
        }
      ],
      "name": "getAssetWinner",
      "outputs": [
        {
          "internalType": "address",
          "name": "",
          "type": "address"
        },
        {
          "internalType": "uint256",
          "name": "",
          "type": "uint256"
        }
      ],
      "payable": false,
      "stateMutability": "view",
      "type": "function"
    },
    {
      "constant": true,
      "inputs": [],
      "name": "getCurrentWinners",
      "outputs": [
        {
          "components": [
            {
              "internalType": "address",
              "name": "dataWinner",
              "type": "address"
            },
            {
              "internalType": "address",
              "name": "infrastructureWinner",
              "type": "address"
            },
            {
              "internalType": "address",
              "name": "algorithmWinner",
              "type": "address"
            },
            {
              "internalType": "uint256",
              "name": "infrastructurePrice",
              "type": "uint256"
            },
            {
              "internalType": "uint256",
              "name": "dataPrice",
              "type": "uint256"
            },
            {
              "internalType": "uint256",
              "name": "algorithmPrice",
              "type": "uint256"
            }
          ],
          "internalType": "struct Auction.Winners",
          "name": "",
          "type": "tuple"
        }
      ],
      "payable": false,
      "stateMutability": "view",
      "type": "function"
    },
    {
      "constant": false,
      "inputs": [],
      "name": "adjudicate",
      "outputs": [
        {
          "components": [
            {
              "internalType": "address",
              "name": "dataWinner",
              "type": "address"
            },
            {
              "internalType": "address",
              "name": "infrastructureWinner",
              "type": "address"
            },
            {
              "internalType": "address",
              "name": "algorithmWinner",
              "type": "address"
            },
            {
              "internalType": "uint256",
              "name": "infrastructurePrice",
              "type": "uint256"
            },
            {
              "internalType": "uint256",
              "name": "dataPrice",
              "type": "uint256"
            },
            {
              "internalType": "uint256",
              "name": "algorithmPrice",
              "type": "uint256"
            }
          ],
          "internalType": "struct Auction.Winners",
          "name": "",
          "type": "tuple"
        }
      ],
      "payable": false,
      "stateMutability": "nonpayable",
      "type": "function"
    },
    {
      "constant": true,
      "inputs": [
        {
          "internalType": "address",
          "name": "_ownerAddress",
          "type": "address"
        }
      ],
      "name": "getBidUser",
      "outputs": [
        {
          "components": [
            {
              "internalType": "uint256",
              "name": "price",
              "type": "uint256"
            },
            {
              "internalType": "enum Auction.ProviderAsset",
              "name": "asset",
              "type": "uint8"
            },
            {
              "internalType": "address",
              "name": "ownerBid",
              "type": "address"
            },
            {
              "internalType": "uint256",
              "name": "id",
              "type": "uint256"
            },
            {
              "internalType": "bool",
              "name": "exists",
              "type": "bool"
            }
          ],
          "internalType": "struct Auction.Bid",
          "name": "",
          "type": "tuple"
        }
      ],
      "payable": false,
      "stateMutability": "view",
      "type": "function"
    },
    {
      "constant": true,
      "inputs": [],
      "name": "getBidHistory",
      "outputs": [
        {
          "components": [
            {
              "internalType": "uint256",
              "name": "price",
              "type": "uint256"
            },
            {
              "internalType": "enum Auction.ProviderAsset",
              "name": "asset",
              "type": "uint8"
            },
            {
              "internalType": "address",
              "name": "ownerBid",
              "type": "address"
            }
          ],
          "internalType": "struct Auction.BidHistoryPoint[]",
          "name": "",
          "type": "tuple[]"
        }
      ],
      "payable": false,
      "stateMutability": "view",
      "type": "function"
    },
    {
      "constant": true,
      "inputs": [],
      "name": "getAuctionOwner",
      "outputs": [
        {
          "internalType": "address",
          "name": "",
          "type": "address"
        }
      ],
      "payable": false,
      "stateMutability": "view",
      "type": "function"
    },
    {
      "constant": true,
      "inputs": [],
      "name": "getFactoryAddress",
      "outputs": [
        {
          "internalType": "address",
          "name": "",
          "type": "address"
        }
      ],
      "payable": false,
      "stateMutability": "view",
      "type": "function"
    }
  ],
  "bytecode": "0x60806040524260035560006005553480156200001a57600080fd5b5060405162001db038038062001db08339818101604052620000409190810190620002f6565b603584511462000087576040517f08c379a00000000000000000000000000000000000000000000000000000000081526004016200007e90620004a7565b60405180910390fd5b6040835114620000ce576040517f08c379a0000000000000000000000000000000000000000000000000000000008152600401620000c590620004c9565b60405180910390fd5b42600381905550336000806101000a81548173ffffffffffffffffffffffffffffffffffffffff021916908373ffffffffffffffffffffffffffffffffffffffff16021790555081600160006101000a81548173ffffffffffffffffffffffffffffffffffffffff021916908373ffffffffffffffffffffffffffffffffffffffff1602179055506103e8600281905550846008908051906020019062000177929190620001bd565b5085600481905550836006908051906020019062000197929190620001bd565b508260079080519060200190620001b0929190620001bd565b50505050505050620005ff565b828054600181600116156101000203166002900490600052602060002090601f016020900481019282601f106200020057805160ff191683800117855562000231565b8280016001018555821562000231579182015b828111156200023057825182559160200191906001019062000213565b5b50905062000240919062000244565b5090565b6200026991905b80821115620002655760008160009055506001016200024b565b5090565b90565b6000815190506200027d81620005cb565b92915050565b600082601f8301126200029557600080fd5b8151620002ac620002a68262000519565b620004eb565b91508082526020830160208301858383011115620002c957600080fd5b620002d683828462000595565b50505092915050565b600081519050620002f081620005e5565b92915050565b60008060008060008060c087890312156200031057600080fd5b60006200032089828a01620002df565b965050602087015167ffffffffffffffff8111156200033e57600080fd5b6200034c89828a0162000283565b955050604087015167ffffffffffffffff8111156200036a57600080fd5b6200037889828a0162000283565b945050606087015167ffffffffffffffff8111156200039657600080fd5b620003a489828a0162000283565b9350506080620003b789828a016200026c565b92505060a0620003ca89828a01620002df565b9150509295509295509295565b6000620003e6603f8362000546565b91507f4950465320555249206d757374206265206120737472696e67206f66206c656e60008301527f6774682035332028697066733a2f2f202b2034362063686172206861736829006020830152604082019050919050565b60006200044e60408362000546565b91507f526571756972656d656e74732068617368206d7573742062652061207374726960008301527f6e67206f66206c656e67746820363420286b656b6b616b3235362873747229296020830152604082019050919050565b60006020820190508181036000830152620004c281620003d7565b9050919050565b60006020820190508181036000830152620004e4816200043f565b9050919050565b6000604051905081810181811067ffffffffffffffff821117156200050f57600080fd5b8060405250919050565b600067ffffffffffffffff8211156200053157600080fd5b601f19601f8301169050602081019050919050565b600082825260208201905092915050565b600062000564826200056b565b9050919050565b600073ffffffffffffffffffffffffffffffffffffffff82169050919050565b6000819050919050565b60005b83811015620005b557808201518184015260208101905062000598565b83811115620005c5576000848401525b50505050565b620005d68162000557565b8114620005e257600080fd5b50565b620005f0816200058b565b8114620005fc57600080fd5b50565b6117a1806200060f6000396000f3fe608060405234801561001057600080fd5b50600436106100935760003560e01c80634383187d116100665780634383187d146101205780637e50bb831461013c578063a3bc93361461015a578063a9c2e36c14610178578063c8e210251461019657610093565b8063101e30f41461009857806311533981146100c857806332f098b1146100e45780633f152d4e14610102575b600080fd5b6100b260048036036100ad91908101906110e8565b6101c7565b6040516100bf9190611626565b60405180910390f35b6100e260048036036100dd9190810190611163565b6102d2565b005b6100ec61068f565b6040516100f99190611520565b60405180910390f35b61010a6106b9565b6040516101179190611641565b60405180910390f35b61013a6004803603610135919081019061113a565b6108ef565b005b610144610a99565b6040516101519190611564565b60405180910390f35b610162610b85565b60405161016f9190611641565b60405180910390f35b610180610c46565b60405161018d9190611520565b60405180910390f35b6101b060048036036101ab9190810190611111565b610c6f565b6040516101be92919061153b565b60405180910390f35b6101cf610fdf565b600f60008373ffffffffffffffffffffffffffffffffffffffff1673ffffffffffffffffffffffffffffffffffffffff1681526020019081526020016000206040518060a0016040529081600082015481526020016001820160009054906101000a900460ff16600281111561024157fe5b600281111561024c57fe5b81526020016001820160019054906101000a900473ffffffffffffffffffffffffffffffffffffffff1673ffffffffffffffffffffffffffffffffffffffff1673ffffffffffffffffffffffffffffffffffffffff168152602001600282015481526020016003820160009054906101000a900460ff1615151515815250509050919050565b600f60003373ffffffffffffffffffffffffffffffffffffffff1673ffffffffffffffffffffffffffffffffffffffff16815260200190815260200160002060030160009054906101000a900460ff1615610362576040517f08c379a0000000000000000000000000000000000000000000000000000000008152600401610359906115c6565b60405180910390fd5b600081600281111561037057fe5b90506000601060008381526020019081526020016000208054905011156103e357600061039c83610c6f565b9150508381116103e1576040517f08c379a00000000000000000000000000000000000000000000000000000000081526004016103d8906115e6565b60405180910390fd5b505b60006103ed610fc3565b90506103f7610fdf565b6040518060a0016040528086815260200185600281111561041457fe5b81526020013373ffffffffffffffffffffffffffffffffffffffff16815260200183815260200160011515815250905080600f60003373ffffffffffffffffffffffffffffffffffffffff1673ffffffffffffffffffffffffffffffffffffffff1681526020019081526020016000206000820151816000015560208201518160010160006101000a81548160ff021916908360028111156104b257fe5b021790555060408201518160010160016101000a81548173ffffffffffffffffffffffffffffffffffffffff021916908373ffffffffffffffffffffffffffffffffffffffff1602179055506060820151816002015560808201518160030160006101000a81548160ff021916908315150217905550905050601060008481526020019081526020016000203390806001815401808255809150509060018203906000526020600020016000909192909190916101000a81548173ffffffffffffffffffffffffffffffffffffffff021916908373ffffffffffffffffffffffffffffffffffffffff16021790555050601160405180606001604052808781526020018660028111156105c157fe5b81526020013373ffffffffffffffffffffffffffffffffffffffff16815250908060018154018082558091505090600182039060005260206000209060020201600090919290919091506000820151816000015560208201518160010160006101000a81548160ff0219169083600281111561063957fe5b021790555060408201518160010160016101000a81548173ffffffffffffffffffffffffffffffffffffffff021916908373ffffffffffffffffffffffffffffffffffffffff1602179055505050505050505050565b6000600160009054906101000a900473ffffffffffffffffffffffffffffffffffffffff16905090565b6106c1611031565b600160009054906101000a900473ffffffffffffffffffffffffffffffffffffffff1673ffffffffffffffffffffffffffffffffffffffff163373ffffffffffffffffffffffffffffffffffffffff1614610751576040517f08c379a000000000000000000000000000000000000000000000000000000000815260040161074890611606565b60405180910390fd5b60028081111561075d57fe5b600160149054906101000a900460ff16600281111561077857fe5b14156107b9576040517f08c379a00000000000000000000000000000000000000000000000000000000081526004016107b090611586565b60405180910390fd5b6002600160146101000a81548160ff021916908360028111156107d857fe5b02179055506107e5611031565b6107ed610b85565b905080600960008201518160000160006101000a81548173ffffffffffffffffffffffffffffffffffffffff021916908373ffffffffffffffffffffffffffffffffffffffff16021790555060208201518160010160006101000a81548173ffffffffffffffffffffffffffffffffffffffff021916908373ffffffffffffffffffffffffffffffffffffffff16021790555060408201518160020160006101000a81548173ffffffffffffffffffffffffffffffffffffffff021916908373ffffffffffffffffffffffffffffffffffffffff160217905550606082015181600301556080820151816004015560a082015181600501559050508091505090565b6000600f60003373ffffffffffffffffffffffffffffffffffffffff1673ffffffffffffffffffffffffffffffffffffffff168152602001908152602001600020905060008061094f8360010160009054906101000a900460ff16610c6f565b915091503373ffffffffffffffffffffffffffffffffffffffff168273ffffffffffffffffffffffffffffffffffffffff1614158061098d57508381115b15610a9357838360000181905550601160405180606001604052808681526020018560010160009054906101000a900460ff1660028111156109cb57fe5b81526020013373ffffffffffffffffffffffffffffffffffffffff16815250908060018154018082558091505090600182039060005260206000209060020201600090919290919091506000820151816000015560208201518160010160006101000a81548160ff02191690836002811115610a4357fe5b021790555060408201518160010160016101000a81548173ffffffffffffffffffffffffffffffffffffffff021916908373ffffffffffffffffffffffffffffffffffffffff1602179055505050505b50505050565b60606011805480602002602001604051908101604052809291908181526020016000905b82821015610b7c5783829060005260206000209060020201604051806060016040529081600082015481526020016001820160009054906101000a900460ff166002811115610b0857fe5b6002811115610b1357fe5b81526020016001820160019054906101000a900473ffffffffffffffffffffffffffffffffffffffff1673ffffffffffffffffffffffffffffffffffffffff1673ffffffffffffffffffffffffffffffffffffffff168152505081526020019060010190610abd565b50505050905090565b610b8d611031565b600080610b9a6000610c6f565b91509150600080610bab6002610c6f565b91509150600080610bbc6001610c6f565b91509150610bc8611031565b6040518060c001604052808873ffffffffffffffffffffffffffffffffffffffff1681526020018673ffffffffffffffffffffffffffffffffffffffff1681526020018473ffffffffffffffffffffffffffffffffffffffff1681526020018781526020018581526020018381525090508097505050505050505090565b60008060009054906101000a900473ffffffffffffffffffffffffffffffffffffffff16905090565b600080600080846002811115610c8157fe5b9050600080601060008481526020019081526020016000208054905011610cdd576040517f08c379a0000000000000000000000000000000000000000000000000000000008152600401610cd4906115a6565b60405180910390fd5b600f600060106000858152602001908152602001600020600081548110610d0057fe5b9060005260206000200160009054906101000a900473ffffffffffffffffffffffffffffffffffffffff1673ffffffffffffffffffffffffffffffffffffffff1673ffffffffffffffffffffffffffffffffffffffff168152602001908152602001600020600001549250600f600060106000858152602001908152602001600020600081548110610d8e57fe5b9060005260206000200160009054906101000a900473ffffffffffffffffffffffffffffffffffffffff1673ffffffffffffffffffffffffffffffffffffffff1673ffffffffffffffffffffffffffffffffffffffff16815260200190815260200160002060010160019054906101000a900473ffffffffffffffffffffffffffffffffffffffff16905060008090505b6010600084815260200190815260200160002080549050811015610fb457610e45610fdf565b600f6000601060008781526020019081526020016000208481548110610e6757fe5b9060005260206000200160009054906101000a900473ffffffffffffffffffffffffffffffffffffffff1673ffffffffffffffffffffffffffffffffffffffff1673ffffffffffffffffffffffffffffffffffffffff1681526020019081526020016000206040518060a0016040529081600082015481526020016001820160009054906101000a900460ff166002811115610eff57fe5b6002811115610f0a57fe5b81526020016001820160019054906101000a900473ffffffffffffffffffffffffffffffffffffffff1673ffffffffffffffffffffffffffffffffffffffff1673ffffffffffffffffffffffffffffffffffffffff168152602001600282015481526020016003820160009054906101000a900460ff16151515158152505090508481600001511015610fa65780600001519450806040015192505b508080600101915050610e1f565b50808394509450505050915091565b6000600560008154809291906001019190505550600554905090565b6040518060a001604052806000815260200160006002811115610ffe57fe5b8152602001600073ffffffffffffffffffffffffffffffffffffffff168152602001600081526020016000151581525090565b6040518060c00160405280600073ffffffffffffffffffffffffffffffffffffffff168152602001600073ffffffffffffffffffffffffffffffffffffffff168152602001600073ffffffffffffffffffffffffffffffffffffffff1681526020016000815260200160008152602001600081525090565b6000813590506110b881611720565b92915050565b6000813590506110cd81611737565b92915050565b6000813590506110e281611747565b92915050565b6000602082840312156110fa57600080fd5b6000611108848285016110a9565b91505092915050565b60006020828403121561112357600080fd5b6000611131848285016110be565b91505092915050565b60006020828403121561114c57600080fd5b600061115a848285016110d3565b91505092915050565b6000806040838503121561117657600080fd5b6000611184858286016110d3565b9250506020611195858286016110be565b9150509250929050565b60006111ab83836113dd565b60608301905092915050565b6111c0816116a6565b82525050565b6111cf816116a6565b82525050565b60006111e08261166c565b6111ea8185611684565b93506111f58361165c565b8060005b8381101561122657815161120d888261119f565b975061121883611677565b9250506001810190506111f9565b5085935050505092915050565b61123c816116b8565b82525050565b61124b81611701565b82525050565b600061125e601c83611695565b91507f41756374696f6e20697320616c72656164792066696e69736865642e000000006000830152602082019050919050565b600061129e602883611695565b91507f4e6f2070726f7669646572732079657420666f722070726f766964656420646160008301527f746120747970652e0000000000000000000000000000000000000000000000006020830152604082019050919050565b6000611304601383611695565b91507f42696420616c7265616479206578697374732e000000000000000000000000006000830152602082019050919050565b6000611344601c83611695565b91507f41206265747465722062696420616c7265616479206578697374732e000000006000830152602082019050919050565b6000611384602183611695565b91507f6d73672e73656e646572206e6f74206f776e6572206f6620636f6e747261637460008301527f2e000000000000000000000000000000000000000000000000000000000000006020830152604082019050919050565b6060820160008201516113f36000850182611502565b5060208201516114066020850182611242565b50604082015161141960408501826111b7565b50505050565b60a0820160008201516114356000850182611502565b5060208201516114486020850182611242565b50604082015161145b60408501826111b7565b50606082015161146e6060850182611502565b5060808201516114816080850182611233565b50505050565b60c08201600082015161149d60008501826111b7565b5060208201516114b060208501826111b7565b5060408201516114c360408501826111b7565b5060608201516114d66060850182611502565b5060808201516114e96080850182611502565b5060a08201516114fc60a0850182611502565b50505050565b61150b816116f7565b82525050565b61151a816116f7565b82525050565b600060208201905061153560008301846111c6565b92915050565b600060408201905061155060008301856111c6565b61155d6020830184611511565b9392505050565b6000602082019050818103600083015261157e81846111d5565b905092915050565b6000602082019050818103600083015261159f81611251565b9050919050565b600060208201905081810360008301526115bf81611291565b9050919050565b600060208201905081810360008301526115df816112f7565b9050919050565b600060208201905081810360008301526115ff81611337565b9050919050565b6000602082019050818103600083015261161f81611377565b9050919050565b600060a08201905061163b600083018461141f565b92915050565b600060c0820190506116566000830184611487565b92915050565b6000819050602082019050919050565b600081519050919050565b6000602082019050919050565b600082825260208201905092915050565b600082825260208201905092915050565b60006116b1826116d7565b9050919050565b60008115159050919050565b60008190506116d282611713565b919050565b600073ffffffffffffffffffffffffffffffffffffffff82169050919050565b6000819050919050565b600061170c826116c4565b9050919050565b6003811061171d57fe5b50565b611729816116a6565b811461173457600080fd5b50565b6003811061174457600080fd5b50565b611750816116f7565b811461175b57600080fd5b5056fea365627a7a723158200567526453b95ce06e1a4437cabfbecd6702bfac0193f847c9dcfb08b6539eab6c6578706572696d656e74616cf564736f6c63430005100040",
  "source": "pragma solidity >=0.5.0;\npragma experimental ABIEncoderV2;\nimport \"./Factory.sol\";\n\n/// @title Auction contract for a specific user request\n/// @author Nicolas Six & Andrea Perrichon-Chrtien\n/// @notice Contract only deployed by the corresponding Factory\n\n\ncontract Auction {\n\n    // FIELDS\n    address factoryAddress;\n    address auctionOwner;\n    AuctionStatus currentState;\n    uint duration;\n    uint timeAtStartContract = block.timestamp; // added \"= block.timestamp\"\n    uint maxPrice;\n    uint uniqueIdCounter = 0;\n    string requirementsURI; // Requirements URI is an IPFS URI\n    string requirementsHash;\n    string currency;\n    Winners winners;\n\n    // ARRAYS MAPPINGS\n    mapping (address => Bid ) addressToBid;\n    mapping (uint => address[]) assetToProviders;//Enum is converted to uint as Enum cannot be used as key\n    BidHistoryPoint[] bidHistory;\n\n    // ENUM\n    enum AuctionStatus {Available, inCourse, Finished}\n    enum ProviderAsset {Data, Algorithm, Infrastructure}\n\n    // STRUCT DEFINITION\n    struct Bid {\n        uint price;\n        ProviderAsset asset;\n        address ownerBid;\n        uint id;\n        bool exists;\n    }\n\n    struct BidHistoryPoint {\n        uint price;\n        ProviderAsset asset;\n        address ownerBid;\n    }\n\n    struct Winners {\n        address dataWinner;\n        address infrastructureWinner;\n        address algorithmWinner;\n        uint infrastructurePrice;\n        uint dataPrice;\n        uint algorithmPrice;\n    }\n\n    // MODIFIERS\n    modifier isOwnerOfContract() {\n        require(msg.sender == auctionOwner, \"msg.sender not owner of contract.\"); //the one creating the auction instance in Factory\n        _;\n    }\n\n    // modifier notFinished() {\n        // require(block.timestamp < timeAtStartContract + duration, \"Auction is finished (timeout).\");\n        // require(currentState != AuctionStatus.Finished, \"Auction is finished.\");\n        // _;\n    // }\n\n    /// @notice Creates an Auction contract with default values, explained here\n    /// @param _maxPrice maximum price allowed for a bid\n    /// @param _currency a currency sigle (eg. \"EUR\")\n    /// @param _requirementsURI a currency sigle (eg. \"EUR\")\n    /// @param _requirementsHash a hash of those requirements\n    /// @param _auctionOwner the owner of this auction (able to adjudicate)\n    /// @param _duration Auction duration (in minutes)\n    constructor(uint _maxPrice, string memory _currency, string memory _requirementsURI, string memory _requirementsHash, address _auctionOwner, uint _duration) public {\n        require(bytes(_requirementsURI).length == 53, \"IPFS URI must be a string of length 53 (ipfs:// + 46 char hash)\");\n        require(bytes(_requirementsHash).length == 64, \"Requirements hash must be a string of length 64 (kekkak256(str))\");\n        timeAtStartContract = block.timestamp;\n        factoryAddress = msg.sender;\n        auctionOwner = _auctionOwner;\n        // duration = _duration * 1 minutes;\n        duration = 1000; // removed 'minutes'\n        currency = _currency;\n        maxPrice = _maxPrice;\n        requirementsURI = _requirementsURI;\n        requirementsHash = _requirementsHash;\n    }\n\n    /// @notice Place a new bid from a provider, if it does not exist yet, and stores references to the bid\n    /// @param _price bid price\n    /// @param _pa which asset is proposed by the provider. 3 possibilities defined in the corresponding enum.\n    function placeBid(uint _price, ProviderAsset _pa) public { //removed \"public notFinished \"\n        require (!addressToBid[msg.sender].exists, \"Bid already exists.\");\n        uint pId = uint(_pa);\n        if(assetToProviders[pId].length > 0) {\n            (,uint lowestBid) = getAssetWinner(_pa);\n            require(lowestBid > _price, \"A better bid already exists.\");\n        }\n        uint idBid = generateUniqueId();\n        Bid memory firstBid = Bid(\n            _price,\n            _pa,\n            msg.sender,\n            idBid,\n            true\n        );\n        addressToBid[msg.sender] = firstBid;\n        assetToProviders[pId].push(msg.sender);\n        bidHistory.push(BidHistoryPoint(_price, _pa, msg.sender));\n    }\n\n    function modifyBid(uint _price) public  { // public notFinished\n        Bid storage bid = addressToBid[msg.sender];\n        (address lowestAddress, uint lowestBid) = getAssetWinner(bid.asset);\n        if (lowestAddress != msg.sender || lowestBid > _price) {\n            bid.price = _price;\n            bidHistory.push(BidHistoryPoint(_price, bid.asset, msg.sender));\n        }\n    }\n\n    /// @notice Computes the current for a specific asset, revert if there is no bidding yet.\n    /// @param _pa the asset in question\n    function getAssetWinner(ProviderAsset _pa) public view returns(address, uint) {\n        uint lowestBid;\n        uint pId = uint(_pa);\n        address lowestAddress;\n\n        require(assetToProviders[pId].length > 0, \"No providers yet for provided data type.\");\n        lowestBid = addressToBid[assetToProviders[pId][0]].price;\n        lowestAddress = addressToBid[assetToProviders[pId][0]].ownerBid;\n        for (uint i = 0; i < assetToProviders[pId].length; i++) {\n            Bid memory _bid = addressToBid[assetToProviders[pId][i]];\n            if(_bid.price < lowestBid) {\n                lowestBid = _bid.price;\n                lowestAddress = _bid.ownerBid;\n            }\n        }\n\n        return (lowestAddress, lowestBid);\n    }\n\n\n    function generateUniqueId() private returns(uint) {\n        uniqueIdCounter++;\n        return uniqueIdCounter;\n    }\n\n    function getCurrentWinners() public view returns(Winners memory) {\n        (address dataWinner, uint dataPrice) = getAssetWinner(ProviderAsset.Data);\n        (address infrastructureWinner, uint infrastructurePrice) = getAssetWinner(ProviderAsset.Infrastructure);\n        (address algorithmWinner, uint algorithmPrice) = getAssetWinner(ProviderAsset.Algorithm);\n\n        Winners memory currentWinners = Winners(\n            dataWinner,\n            infrastructureWinner,\n            algorithmWinner,\n            dataPrice,\n            infrastructurePrice,\n            algorithmPrice\n        );\n\n        return currentWinners;\n    }\n\n    /// @notice this function adjudicates the auction. Only possible if auction duration has elapsed.\n    /// @return Winners of the auction, as a struct\n    function adjudicate() public isOwnerOfContract returns (Winners memory) { //terminer l'enchre + set winnerAuction + transfer funds\n        require(currentState != AuctionStatus.Finished, \"Auction is already finished.\");\n        //require(block.timestamp > timeAtStartContract + duration, \"Adjudication cannot be performed yet (no timeout).\");\n        currentState = AuctionStatus.Finished; //Finish Auction\n        Winners memory finalWinners = getCurrentWinners();\n        winners = finalWinners;\n        return finalWinners;\n    }\n\n    // GETTERS\n\n    function getBidUser(address _ownerAddress) public view returns (Bid memory) {\n        return addressToBid[_ownerAddress];\n    }\n\n    function getBidHistory() public view returns (BidHistoryPoint[] memory) {\n        return bidHistory;\n    }\n\n    function getAuctionOwner() public view returns(address) {\n        return auctionOwner;\n    }\n\n    function getFactoryAddress() public view returns(address) {\n        return factoryAddress;\n    }\n}\n",
  "sourcePath": "/Users/andrealocelso/mkt/contracts/Auction.sol",
  "compiler": {
    "name": "solc",
    "version": "0.5.16+commit.9c3226ce.Emscripten.clang"
  },
  "schemaVersion": "3.4.1",
  "updatedAt": "2021-08-03T10:24:02.564Z",
  "networkType": "ethereum",
  "devdoc": {
    "author": "Nicolas Six & Andrea Perrichon-Chrtien",
    "methods": {
      "adjudicate()": {
        "return": "Winners of the auction, as a struct"
      },
      "constructor": {
        "params": {
          "_auctionOwner": "the owner of this auction (able to adjudicate)",
          "_currency": "a currency sigle (eg. \"EUR\")",
          "_duration": "Auction duration (in minutes)",
          "_maxPrice": "maximum price allowed for a bid",
          "_requirementsHash": "a hash of those requirements",
          "_requirementsURI": "a currency sigle (eg. \"EUR\")"
        }
      },
      "getAssetWinner(uint8)": {
        "params": {
          "_pa": "the asset in question"
        }
      },
      "placeBid(uint256,uint8)": {
        "params": {
          "_pa": "which asset is proposed by the provider. 3 possibilities defined in the corresponding enum.",
          "_price": "bid price"
        }
      }
    },
    "title": "Auction contract for a specific user request"
  },
  "userdoc": {
    "methods": {
      "adjudicate()": {
        "notice": "this function adjudicates the auction. Only possible if auction duration has elapsed."
      },
      "constructor": "Creates an Auction contract with default values, explained here",
      "getAssetWinner(uint8)": {
        "notice": "Computes the current for a specific asset, revert if there is no bidding yet."
      },
      "placeBid(uint256,uint8)": {
        "notice": "Place a new bid from a provider, if it does not exist yet, and stores references to the bid"
      }
    },
    "notice": "Contract only deployed by the corresponding Factory"
  }
}