{
  "contractName": "Factory",
  "abi": [
    {
      "inputs": [
        {
          "internalType": "string",
          "name": "_ontologyURI",
          "type": "string"
        }
      ],
      "payable": false,
      "stateMutability": "nonpayable",
      "type": "constructor"
    },
    {
      "anonymous": false,
      "inputs": [
        {
          "indexed": false,
          "internalType": "address",
          "name": "auctionContract",
          "type": "address"
        },
        {
          "indexed": false,
          "internalType": "address",
          "name": "owner",
          "type": "address"
        },
        {
          "indexed": false,
          "internalType": "uint256",
          "name": "auctionID",
          "type": "uint256"
        }
      ],
      "name": "auctionCreated",
      "type": "event"
    },
    {
      "constant": true,
      "inputs": [
        {
          "internalType": "uint256",
          "name": "",
          "type": "uint256"
        }
      ],
      "name": "auctionAddresses",
      "outputs": [
        {
          "internalType": "address",
          "name": "",
          "type": "address"
        }
      ],
      "payable": false,
      "stateMutability": "view",
      "type": "function"
    },
    {
      "constant": false,
      "inputs": [
        {
          "internalType": "uint256",
          "name": "_maxPrice",
          "type": "uint256"
        },
        {
          "internalType": "string",
          "name": "_currency",
          "type": "string"
        },
        {
          "internalType": "string",
          "name": "_ipfsURI",
          "type": "string"
        },
        {
          "internalType": "string",
          "name": "_requirementsHash",
          "type": "string"
        },
        {
          "internalType": "uint256",
          "name": "_duration",
          "type": "uint256"
        }
      ],
      "name": "createAuction",
      "outputs": [
        {
          "internalType": "address",
          "name": "auctionAddress",
          "type": "address"
        }
      ],
      "payable": false,
      "stateMutability": "nonpayable",
      "type": "function"
    },
    {
      "constant": true,
      "inputs": [
        {
          "internalType": "uint256",
          "name": "_auctionId",
          "type": "uint256"
        }
      ],
      "name": "getAuction",
      "outputs": [
        {
          "internalType": "contract Auction",
          "name": "",
          "type": "address"
        }
      ],
      "payable": false,
      "stateMutability": "view",
      "type": "function"
    },
    {
      "constant": true,
      "inputs": [],
      "name": "getAllAuctions",
      "outputs": [
        {
          "internalType": "address[]",
          "name": "",
          "type": "address[]"
        }
      ],
      "payable": false,
      "stateMutability": "view",
      "type": "function"
    }
  ],
  "bytecode": "0x60806040526000805534801561001457600080fd5b506040516128b73803806128b78339818101604052602081101561003757600080fd5b810190808051604051939291908464010000000082111561005757600080fd5b8382019150602082018581111561006d57600080fd5b825186600182028301116401000000008211171561008a57600080fd5b8083526020830192505050908051906020019080838360005b838110156100be5780820151818401526020810190506100a3565b50505050905090810190601f1680156100eb5780820380516001836020036101000a031916815260200191505b50604052505050603581511461014c576040517f08c379a000000000000000000000000000000000000000000000000000000000815260040180806020018281038252604881526020018061286f6048913960600191505060405180910390fd5b8060029080519060200190610162929190610169565b505061020e565b828054600181600116156101000203166002900490600052602060002090601f016020900481019282601f106101aa57805160ff19168380011785556101d8565b828001600101855582156101d8579182015b828111156101d75782518255916020019190600101906101bc565b5b5090506101e591906101e9565b5090565b61020b91905b808211156102075760008160009055506001016101ef565b5090565b90565b6126528061021d6000396000f3fe60806040523480156200001157600080fd5b5060043610620000525760003560e01c806378bd79351462000057578063ca98362b14620000c8578063cbd2bdfd1462000139578063cdcd28fe146200019c575b600080fd5b62000086600480360360208110156200006f57600080fd5b8101908080359060200190929190505050620003e5565b604051808273ffffffffffffffffffffffffffffffffffffffff1673ffffffffffffffffffffffffffffffffffffffff16815260200191505060405180910390f35b620000f760048036036020811015620000e057600080fd5b810190808035906020019092919050505062000422565b604051808273ffffffffffffffffffffffffffffffffffffffff1673ffffffffffffffffffffffffffffffffffffffff16815260200191505060405180910390f35b620001436200045f565b6040518080602001828103825283818151815260200191508051906020019060200280838360005b83811015620001885780820151818401526020810190506200016b565b505050509050019250505060405180910390f35b620003a3600480360360a0811015620001b457600080fd5b810190808035906020019092919080359060200190640100000000811115620001dc57600080fd5b820183602082011115620001ef57600080fd5b803590602001918460018302840111640100000000831117156200021257600080fd5b91908080601f016020809104026020016040519081016040528093929190818152602001838380828437600081840152601f19601f820116905080830192505050505050509192919290803590602001906401000000008111156200027657600080fd5b8201836020820111156200028957600080fd5b80359060200191846001830284011164010000000083111715620002ac57600080fd5b91908080601f016020809104026020016040519081016040528093929190818152602001838380828437600081840152601f19601f820116905080830192505050505050509192919290803590602001906401000000008111156200031057600080fd5b8201836020820111156200032357600080fd5b803590602001918460018302840111640100000000831117156200034657600080fd5b91908080601f016020809104026020016040519081016040528093929190818152602001838380828437600081840152601f19601f8201169050808301925050505050505091929192908035906020019092919050505062000504565b604051808273ffffffffffffffffffffffffffffffffffffffff1673ffffffffffffffffffffffffffffffffffffffff16815260200191505060405180910390f35b60006003600083815260200190815260200160002060009054906101000a900473ffffffffffffffffffffffffffffffffffffffff169050919050565b600181815481106200043057fe5b906000526020600020016000915054906101000a900473ffffffffffffffffffffffffffffffffffffffff1681565b60608060008090505b600054811015620004fc576003600082815260200190815260200160002060009054906101000a900473ffffffffffffffffffffffffffffffffffffffff16828281518110620004b457fe5b602002602001019073ffffffffffffffffffffffffffffffffffffffff16908173ffffffffffffffffffffffffffffffffffffffff1681525050808060010191505062000468565b508091505090565b6000806200051162000844565b9050600087878787338860405162000529906200085f565b808781526020018060200180602001806020018673ffffffffffffffffffffffffffffffffffffffff1673ffffffffffffffffffffffffffffffffffffffff168152602001858152602001848103845289818151815260200191508051906020019080838360005b83811015620005ae57808201518184015260208101905062000591565b50505050905090810190601f168015620005dc5780820380516001836020036101000a031916815260200191505b50848103835288818151815260200191508051906020019080838360005b8381101562000617578082015181840152602081019050620005fa565b50505050905090810190601f168015620006455780820380516001836020036101000a031916815260200191505b50848103825287818151815260200191508051906020019080838360005b838110156200068057808201518184015260208101905062000663565b50505050905090810190601f168015620006ae5780820380516001836020036101000a031916815260200191505b509950505050505050505050604051809103906000f080158015620006d7573d6000803e3d6000fd5b509050806003600084815260200190815260200160002060006101000a81548173ffffffffffffffffffffffffffffffffffffffff021916908373ffffffffffffffffffffffffffffffffffffffff16021790555060018190806001815401808255809150509060018203906000526020600020016000909192909190916101000a81548173ffffffffffffffffffffffffffffffffffffffff021916908373ffffffffffffffffffffffffffffffffffffffff160217905550507fc4bc01f47a19781fccedb7a2aee3081cf40e99b391ef3dca5e0c7eec6af81ddc8133600180549050604051808473ffffffffffffffffffffffffffffffffffffffff1673ffffffffffffffffffffffffffffffffffffffff1681526020018373ffffffffffffffffffffffffffffffffffffffff1673ffffffffffffffffffffffffffffffffffffffff168152602001828152602001935050505060405180910390a1809250505095945050505050565b60008060008154809291906001019190505550600054905090565b611db0806200086e8339019056fe60806040524260035560006005553480156200001a57600080fd5b5060405162001db038038062001db08339818101604052620000409190810190620002f6565b603584511462000087576040517f08c379a00000000000000000000000000000000000000000000000000000000081526004016200007e90620004a7565b60405180910390fd5b6040835114620000ce576040517f08c379a0000000000000000000000000000000000000000000000000000000008152600401620000c590620004c9565b60405180910390fd5b42600381905550336000806101000a81548173ffffffffffffffffffffffffffffffffffffffff021916908373ffffffffffffffffffffffffffffffffffffffff16021790555081600160006101000a81548173ffffffffffffffffffffffffffffffffffffffff021916908373ffffffffffffffffffffffffffffffffffffffff1602179055506103e8600281905550846008908051906020019062000177929190620001bd565b5085600481905550836006908051906020019062000197929190620001bd565b508260079080519060200190620001b0929190620001bd565b50505050505050620005ff565b828054600181600116156101000203166002900490600052602060002090601f016020900481019282601f106200020057805160ff191683800117855562000231565b8280016001018555821562000231579182015b828111156200023057825182559160200191906001019062000213565b5b50905062000240919062000244565b5090565b6200026991905b80821115620002655760008160009055506001016200024b565b5090565b90565b6000815190506200027d81620005cb565b92915050565b600082601f8301126200029557600080fd5b8151620002ac620002a68262000519565b620004eb565b91508082526020830160208301858383011115620002c957600080fd5b620002d683828462000595565b50505092915050565b600081519050620002f081620005e5565b92915050565b60008060008060008060c087890312156200031057600080fd5b60006200032089828a01620002df565b965050602087015167ffffffffffffffff8111156200033e57600080fd5b6200034c89828a0162000283565b955050604087015167ffffffffffffffff8111156200036a57600080fd5b6200037889828a0162000283565b945050606087015167ffffffffffffffff8111156200039657600080fd5b620003a489828a0162000283565b9350506080620003b789828a016200026c565b92505060a0620003ca89828a01620002df565b9150509295509295509295565b6000620003e6603f8362000546565b91507f4950465320555249206d757374206265206120737472696e67206f66206c656e60008301527f6774682035332028697066733a2f2f202b2034362063686172206861736829006020830152604082019050919050565b60006200044e60408362000546565b91507f526571756972656d656e74732068617368206d7573742062652061207374726960008301527f6e67206f66206c656e67746820363420286b656b6b616b3235362873747229296020830152604082019050919050565b60006020820190508181036000830152620004c281620003d7565b9050919050565b60006020820190508181036000830152620004e4816200043f565b9050919050565b6000604051905081810181811067ffffffffffffffff821117156200050f57600080fd5b8060405250919050565b600067ffffffffffffffff8211156200053157600080fd5b601f19601f8301169050602081019050919050565b600082825260208201905092915050565b600062000564826200056b565b9050919050565b600073ffffffffffffffffffffffffffffffffffffffff82169050919050565b6000819050919050565b60005b83811015620005b557808201518184015260208101905062000598565b83811115620005c5576000848401525b50505050565b620005d68162000557565b8114620005e257600080fd5b50565b620005f0816200058b565b8114620005fc57600080fd5b50565b6117a1806200060f6000396000f3fe608060405234801561001057600080fd5b50600436106100935760003560e01c80634383187d116100665780634383187d146101205780637e50bb831461013c578063a3bc93361461015a578063a9c2e36c14610178578063c8e210251461019657610093565b8063101e30f41461009857806311533981146100c857806332f098b1146100e45780633f152d4e14610102575b600080fd5b6100b260048036036100ad91908101906110e8565b6101c7565b6040516100bf9190611626565b60405180910390f35b6100e260048036036100dd9190810190611163565b6102d2565b005b6100ec61068f565b6040516100f99190611520565b60405180910390f35b61010a6106b9565b6040516101179190611641565b60405180910390f35b61013a6004803603610135919081019061113a565b6108ef565b005b610144610a99565b6040516101519190611564565b60405180910390f35b610162610b85565b60405161016f9190611641565b60405180910390f35b610180610c46565b60405161018d9190611520565b60405180910390f35b6101b060048036036101ab9190810190611111565b610c6f565b6040516101be92919061153b565b60405180910390f35b6101cf610fdf565b600f60008373ffffffffffffffffffffffffffffffffffffffff1673ffffffffffffffffffffffffffffffffffffffff1681526020019081526020016000206040518060a0016040529081600082015481526020016001820160009054906101000a900460ff16600281111561024157fe5b600281111561024c57fe5b81526020016001820160019054906101000a900473ffffffffffffffffffffffffffffffffffffffff1673ffffffffffffffffffffffffffffffffffffffff1673ffffffffffffffffffffffffffffffffffffffff168152602001600282015481526020016003820160009054906101000a900460ff1615151515815250509050919050565b600f60003373ffffffffffffffffffffffffffffffffffffffff1673ffffffffffffffffffffffffffffffffffffffff16815260200190815260200160002060030160009054906101000a900460ff1615610362576040517f08c379a0000000000000000000000000000000000000000000000000000000008152600401610359906115c6565b60405180910390fd5b600081600281111561037057fe5b90506000601060008381526020019081526020016000208054905011156103e357600061039c83610c6f565b9150508381116103e1576040517f08c379a00000000000000000000000000000000000000000000000000000000081526004016103d8906115e6565b60405180910390fd5b505b60006103ed610fc3565b90506103f7610fdf565b6040518060a0016040528086815260200185600281111561041457fe5b81526020013373ffffffffffffffffffffffffffffffffffffffff16815260200183815260200160011515815250905080600f60003373ffffffffffffffffffffffffffffffffffffffff1673ffffffffffffffffffffffffffffffffffffffff1681526020019081526020016000206000820151816000015560208201518160010160006101000a81548160ff021916908360028111156104b257fe5b021790555060408201518160010160016101000a81548173ffffffffffffffffffffffffffffffffffffffff021916908373ffffffffffffffffffffffffffffffffffffffff1602179055506060820151816002015560808201518160030160006101000a81548160ff021916908315150217905550905050601060008481526020019081526020016000203390806001815401808255809150509060018203906000526020600020016000909192909190916101000a81548173ffffffffffffffffffffffffffffffffffffffff021916908373ffffffffffffffffffffffffffffffffffffffff16021790555050601160405180606001604052808781526020018660028111156105c157fe5b81526020013373ffffffffffffffffffffffffffffffffffffffff16815250908060018154018082558091505090600182039060005260206000209060020201600090919290919091506000820151816000015560208201518160010160006101000a81548160ff0219169083600281111561063957fe5b021790555060408201518160010160016101000a81548173ffffffffffffffffffffffffffffffffffffffff021916908373ffffffffffffffffffffffffffffffffffffffff1602179055505050505050505050565b6000600160009054906101000a900473ffffffffffffffffffffffffffffffffffffffff16905090565b6106c1611031565b600160009054906101000a900473ffffffffffffffffffffffffffffffffffffffff1673ffffffffffffffffffffffffffffffffffffffff163373ffffffffffffffffffffffffffffffffffffffff1614610751576040517f08c379a000000000000000000000000000000000000000000000000000000000815260040161074890611606565b60405180910390fd5b60028081111561075d57fe5b600160149054906101000a900460ff16600281111561077857fe5b14156107b9576040517f08c379a00000000000000000000000000000000000000000000000000000000081526004016107b090611586565b60405180910390fd5b6002600160146101000a81548160ff021916908360028111156107d857fe5b02179055506107e5611031565b6107ed610b85565b905080600960008201518160000160006101000a81548173ffffffffffffffffffffffffffffffffffffffff021916908373ffffffffffffffffffffffffffffffffffffffff16021790555060208201518160010160006101000a81548173ffffffffffffffffffffffffffffffffffffffff021916908373ffffffffffffffffffffffffffffffffffffffff16021790555060408201518160020160006101000a81548173ffffffffffffffffffffffffffffffffffffffff021916908373ffffffffffffffffffffffffffffffffffffffff160217905550606082015181600301556080820151816004015560a082015181600501559050508091505090565b6000600f60003373ffffffffffffffffffffffffffffffffffffffff1673ffffffffffffffffffffffffffffffffffffffff168152602001908152602001600020905060008061094f8360010160009054906101000a900460ff16610c6f565b915091503373ffffffffffffffffffffffffffffffffffffffff168273ffffffffffffffffffffffffffffffffffffffff1614158061098d57508381115b15610a9357838360000181905550601160405180606001604052808681526020018560010160009054906101000a900460ff1660028111156109cb57fe5b81526020013373ffffffffffffffffffffffffffffffffffffffff16815250908060018154018082558091505090600182039060005260206000209060020201600090919290919091506000820151816000015560208201518160010160006101000a81548160ff02191690836002811115610a4357fe5b021790555060408201518160010160016101000a81548173ffffffffffffffffffffffffffffffffffffffff021916908373ffffffffffffffffffffffffffffffffffffffff1602179055505050505b50505050565b60606011805480602002602001604051908101604052809291908181526020016000905b82821015610b7c5783829060005260206000209060020201604051806060016040529081600082015481526020016001820160009054906101000a900460ff166002811115610b0857fe5b6002811115610b1357fe5b81526020016001820160019054906101000a900473ffffffffffffffffffffffffffffffffffffffff1673ffffffffffffffffffffffffffffffffffffffff1673ffffffffffffffffffffffffffffffffffffffff168152505081526020019060010190610abd565b50505050905090565b610b8d611031565b600080610b9a6000610c6f565b91509150600080610bab6002610c6f565b91509150600080610bbc6001610c6f565b91509150610bc8611031565b6040518060c001604052808873ffffffffffffffffffffffffffffffffffffffff1681526020018673ffffffffffffffffffffffffffffffffffffffff1681526020018473ffffffffffffffffffffffffffffffffffffffff1681526020018781526020018581526020018381525090508097505050505050505090565b60008060009054906101000a900473ffffffffffffffffffffffffffffffffffffffff16905090565b600080600080846002811115610c8157fe5b9050600080601060008481526020019081526020016000208054905011610cdd576040517f08c379a0000000000000000000000000000000000000000000000000000000008152600401610cd4906115a6565b60405180910390fd5b600f600060106000858152602001908152602001600020600081548110610d0057fe5b9060005260206000200160009054906101000a900473ffffffffffffffffffffffffffffffffffffffff1673ffffffffffffffffffffffffffffffffffffffff1673ffffffffffffffffffffffffffffffffffffffff168152602001908152602001600020600001549250600f600060106000858152602001908152602001600020600081548110610d8e57fe5b9060005260206000200160009054906101000a900473ffffffffffffffffffffffffffffffffffffffff1673ffffffffffffffffffffffffffffffffffffffff1673ffffffffffffffffffffffffffffffffffffffff16815260200190815260200160002060010160019054906101000a900473ffffffffffffffffffffffffffffffffffffffff16905060008090505b6010600084815260200190815260200160002080549050811015610fb457610e45610fdf565b600f6000601060008781526020019081526020016000208481548110610e6757fe5b9060005260206000200160009054906101000a900473ffffffffffffffffffffffffffffffffffffffff1673ffffffffffffffffffffffffffffffffffffffff1673ffffffffffffffffffffffffffffffffffffffff1681526020019081526020016000206040518060a0016040529081600082015481526020016001820160009054906101000a900460ff166002811115610eff57fe5b6002811115610f0a57fe5b81526020016001820160019054906101000a900473ffffffffffffffffffffffffffffffffffffffff1673ffffffffffffffffffffffffffffffffffffffff1673ffffffffffffffffffffffffffffffffffffffff168152602001600282015481526020016003820160009054906101000a900460ff16151515158152505090508481600001511015610fa65780600001519450806040015192505b508080600101915050610e1f565b50808394509450505050915091565b6000600560008154809291906001019190505550600554905090565b6040518060a001604052806000815260200160006002811115610ffe57fe5b8152602001600073ffffffffffffffffffffffffffffffffffffffff168152602001600081526020016000151581525090565b6040518060c00160405280600073ffffffffffffffffffffffffffffffffffffffff168152602001600073ffffffffffffffffffffffffffffffffffffffff168152602001600073ffffffffffffffffffffffffffffffffffffffff1681526020016000815260200160008152602001600081525090565b6000813590506110b881611720565b92915050565b6000813590506110cd81611737565b92915050565b6000813590506110e281611747565b92915050565b6000602082840312156110fa57600080fd5b6000611108848285016110a9565b91505092915050565b60006020828403121561112357600080fd5b6000611131848285016110be565b91505092915050565b60006020828403121561114c57600080fd5b600061115a848285016110d3565b91505092915050565b6000806040838503121561117657600080fd5b6000611184858286016110d3565b9250506020611195858286016110be565b9150509250929050565b60006111ab83836113dd565b60608301905092915050565b6111c0816116a6565b82525050565b6111cf816116a6565b82525050565b60006111e08261166c565b6111ea8185611684565b93506111f58361165c565b8060005b8381101561122657815161120d888261119f565b975061121883611677565b9250506001810190506111f9565b5085935050505092915050565b61123c816116b8565b82525050565b61124b81611701565b82525050565b600061125e601c83611695565b91507f41756374696f6e20697320616c72656164792066696e69736865642e000000006000830152602082019050919050565b600061129e602883611695565b91507f4e6f2070726f7669646572732079657420666f722070726f766964656420646160008301527f746120747970652e0000000000000000000000000000000000000000000000006020830152604082019050919050565b6000611304601383611695565b91507f42696420616c7265616479206578697374732e000000000000000000000000006000830152602082019050919050565b6000611344601c83611695565b91507f41206265747465722062696420616c7265616479206578697374732e000000006000830152602082019050919050565b6000611384602183611695565b91507f6d73672e73656e646572206e6f74206f776e6572206f6620636f6e747261637460008301527f2e000000000000000000000000000000000000000000000000000000000000006020830152604082019050919050565b6060820160008201516113f36000850182611502565b5060208201516114066020850182611242565b50604082015161141960408501826111b7565b50505050565b60a0820160008201516114356000850182611502565b5060208201516114486020850182611242565b50604082015161145b60408501826111b7565b50606082015161146e6060850182611502565b5060808201516114816080850182611233565b50505050565b60c08201600082015161149d60008501826111b7565b5060208201516114b060208501826111b7565b5060408201516114c360408501826111b7565b5060608201516114d66060850182611502565b5060808201516114e96080850182611502565b5060a08201516114fc60a0850182611502565b50505050565b61150b816116f7565b82525050565b61151a816116f7565b82525050565b600060208201905061153560008301846111c6565b92915050565b600060408201905061155060008301856111c6565b61155d6020830184611511565b9392505050565b6000602082019050818103600083015261157e81846111d5565b905092915050565b6000602082019050818103600083015261159f81611251565b9050919050565b600060208201905081810360008301526115bf81611291565b9050919050565b600060208201905081810360008301526115df816112f7565b9050919050565b600060208201905081810360008301526115ff81611337565b9050919050565b6000602082019050818103600083015261161f81611377565b9050919050565b600060a08201905061163b600083018461141f565b92915050565b600060c0820190506116566000830184611487565b92915050565b6000819050602082019050919050565b600081519050919050565b6000602082019050919050565b600082825260208201905092915050565b600082825260208201905092915050565b60006116b1826116d7565b9050919050565b60008115159050919050565b60008190506116d282611713565b919050565b600073ffffffffffffffffffffffffffffffffffffffff82169050919050565b6000819050919050565b600061170c826116c4565b9050919050565b6003811061171d57fe5b50565b611729816116a6565b811461173457600080fd5b50565b6003811061174457600080fd5b50565b611750816116f7565b811461175b57600080fd5b5056fea365627a7a723158200567526453b95ce06e1a4437cabfbecd6702bfac0193f847c9dcfb08b6539eab6c6578706572696d656e74616cf564736f6c63430005100040a265627a7a72315820b877f0fe3204f9b8289ad1d7df409fce57b14d0aa54cc83afc7108a8cf26905b64736f6c634300051000324f6e746f6c6f6779204950465320555249206d757374206265206120737472696e67206f66206c656e6774682035332028697066733a2f2f202b2034362063686172206861736829",
  "source": "// SPDX-License-Identifier: GPL-3.0\n\npragma solidity >=0.5.0;\n//pragma experimental ABIEncoderV2;\n\nimport \"./Auction.sol\";\n\n//Factory est un rpertoire contenant toutes les Auction ==> de manire  pouvoir y accder plus tard\n\n\ncontract Factory {\n\n    uint uniqueIdCounter = 0;\n\n    //ARRAY\n    address[] public auctionAddresses;\n    // ontologyURI is an IPFS URI\n    string ontologyURI;\n    mapping (uint => Auction) auctionStore;\n\n    event auctionCreated(address auctionContract, address owner, uint auctionID);\n\n\n    constructor(string memory _ontologyURI) public { //string memory _ontologyURI\n        require(bytes(_ontologyURI).length == 53, \"Ontology IPFS URI must be a string of length 53 (ipfs:// + 46 char hash)\");\n        ontologyURI = _ontologyURI;\n    }\n\n\n    function createAuction(uint _maxPrice, string memory _currency, string memory _ipfsURI, string memory _requirementsHash, uint _duration) public returns (address auctionAddress) {\n\n        uint newId = generateUniqueId();\n\n        Auction auctionObject = new Auction(\n                _maxPrice,\n                _currency,\n                _ipfsURI,\n                _requirementsHash,\n                msg.sender,\n                _duration\n            );\n\n        auctionStore[newId] = auctionObject; //mapping or array ?\n        auctionAddresses.push(address(auctionObject));\n        emit auctionCreated(address(auctionObject), msg.sender, auctionAddresses.length); //send event\n\n        return address(auctionObject);\n    }\n\n    function generateUniqueId() private returns(uint) {\n        uniqueIdCounter++;\n        return uniqueIdCounter;\n    }\n\n    function getAuction(uint _auctionId) public view returns (Auction) {\n        //Ajouter un require\n        return auctionStore[_auctionId];\n    }\n\n  function getAllAuctions() public view returns (address[] memory) {\n    address [] memory arrayAuctions;\n      for (uint i = 0; i < uniqueIdCounter; i++ ) {\n          arrayAuctions[i] = address(auctionStore[i]);\n      }\n      return arrayAuctions;\n  }\n\n}\n",
  "sourcePath": "/Users/andrealocelso/mkt/contracts/Factory.sol",
  "compiler": {
    "name": "solc",
    "version": "0.5.16+commit.9c3226ce.Emscripten.clang"
  },
  "schemaVersion": "3.4.1",
  "updatedAt": "2021-08-03T10:24:02.172Z",
  "networkType": "ethereum",
  "devdoc": {
    "methods": {}
  },
  "userdoc": {
    "methods": {}
  }
}