{
  "contractName": "Factory",
  "abi": [
    {
      "inputs": [
        {
          "internalType": "string",
          "name": "_ontologyURI",
          "type": "string"
        }
      ],
      "payable": false,
      "stateMutability": "nonpayable",
      "type": "constructor"
    },
    {
      "anonymous": false,
      "inputs": [
        {
          "indexed": false,
          "internalType": "address",
          "name": "auctionContract",
          "type": "address"
        },
        {
          "indexed": false,
          "internalType": "address",
          "name": "owner",
          "type": "address"
        },
        {
          "indexed": false,
          "internalType": "uint256",
          "name": "auctionID",
          "type": "uint256"
        }
      ],
      "name": "auctionCreated",
      "type": "event"
    },
    {
      "constant": true,
      "inputs": [
        {
          "internalType": "uint256",
          "name": "",
          "type": "uint256"
        }
      ],
      "name": "auctionAddresses",
      "outputs": [
        {
          "internalType": "address",
          "name": "",
          "type": "address"
        }
      ],
      "payable": false,
      "stateMutability": "view",
      "type": "function"
    },
    {
      "constant": false,
      "inputs": [
        {
          "internalType": "uint256",
          "name": "_maxPrice",
          "type": "uint256"
        },
        {
          "internalType": "string",
          "name": "_currency",
          "type": "string"
        },
        {
          "internalType": "string",
          "name": "_ipfsURI",
          "type": "string"
        },
        {
          "internalType": "string",
          "name": "_requirementsHash",
          "type": "string"
        },
        {
          "internalType": "uint256",
          "name": "_duration",
          "type": "uint256"
        }
      ],
      "name": "createAuction",
      "outputs": [
        {
          "internalType": "address",
          "name": "auctionAddress",
          "type": "address"
        }
      ],
      "payable": false,
      "stateMutability": "nonpayable",
      "type": "function"
    },
    {
      "constant": true,
      "inputs": [
        {
          "internalType": "uint256",
          "name": "_auctionId",
          "type": "uint256"
        }
      ],
      "name": "getAuction",
      "outputs": [
        {
          "internalType": "contract Auction",
          "name": "",
          "type": "address"
        }
      ],
      "payable": false,
      "stateMutability": "view",
      "type": "function"
    },
    {
      "constant": true,
      "inputs": [],
      "name": "getAllAuctions",
      "outputs": [
        {
          "internalType": "address[]",
          "name": "",
          "type": "address[]"
        }
      ],
      "payable": false,
      "stateMutability": "view",
      "type": "function"
    }
  ],
  "bytecode": "0x60806040526000805534801561001457600080fd5b50604051612ad4380380612ad48339818101604052602081101561003757600080fd5b810190808051604051939291908464010000000082111561005757600080fd5b8382019150602082018581111561006d57600080fd5b825186600182028301116401000000008211171561008a57600080fd5b8083526020830192505050908051906020019080838360005b838110156100be5780820151818401526020810190506100a3565b50505050905090810190601f1680156100eb5780820380516001836020036101000a031916815260200191505b50604052505050603581511461014c576040517f08c379a0000000000000000000000000000000000000000000000000000000008152600401808060200182810382526048815260200180612a8c6048913960600191505060405180910390fd5b8060029080519060200190610162929190610169565b505061020e565b828054600181600116156101000203166002900490600052602060002090601f016020900481019282601f106101aa57805160ff19168380011785556101d8565b828001600101855582156101d8579182015b828111156101d75782518255916020019190600101906101bc565b5b5090506101e591906101e9565b5090565b61020b91905b808211156102075760008160009055506001016101ef565b5090565b90565b61286f8061021d6000396000f3fe60806040523480156200001157600080fd5b5060043610620000525760003560e01c806378bd79351462000057578063ca98362b14620000c8578063cbd2bdfd1462000139578063cdcd28fe146200019c575b600080fd5b62000086600480360360208110156200006f57600080fd5b8101908080359060200190929190505050620003e5565b604051808273ffffffffffffffffffffffffffffffffffffffff1673ffffffffffffffffffffffffffffffffffffffff16815260200191505060405180910390f35b620000f760048036036020811015620000e057600080fd5b810190808035906020019092919050505062000422565b604051808273ffffffffffffffffffffffffffffffffffffffff1673ffffffffffffffffffffffffffffffffffffffff16815260200191505060405180910390f35b620001436200045f565b6040518080602001828103825283818151815260200191508051906020019060200280838360005b83811015620001885780820151818401526020810190506200016b565b505050509050019250505060405180910390f35b620003a3600480360360a0811015620001b457600080fd5b810190808035906020019092919080359060200190640100000000811115620001dc57600080fd5b820183602082011115620001ef57600080fd5b803590602001918460018302840111640100000000831117156200021257600080fd5b91908080601f016020809104026020016040519081016040528093929190818152602001838380828437600081840152601f19601f820116905080830192505050505050509192919290803590602001906401000000008111156200027657600080fd5b8201836020820111156200028957600080fd5b80359060200191846001830284011164010000000083111715620002ac57600080fd5b91908080601f016020809104026020016040519081016040528093929190818152602001838380828437600081840152601f19601f820116905080830192505050505050509192919290803590602001906401000000008111156200031057600080fd5b8201836020820111156200032357600080fd5b803590602001918460018302840111640100000000831117156200034657600080fd5b91908080601f016020809104026020016040519081016040528093929190818152602001838380828437600081840152601f19601f8201169050808301925050505050505091929192908035906020019092919050505062000504565b604051808273ffffffffffffffffffffffffffffffffffffffff1673ffffffffffffffffffffffffffffffffffffffff16815260200191505060405180910390f35b60006003600083815260200190815260200160002060009054906101000a900473ffffffffffffffffffffffffffffffffffffffff169050919050565b600181815481106200043057fe5b906000526020600020016000915054906101000a900473ffffffffffffffffffffffffffffffffffffffff1681565b60608060008090505b600054811015620004fc576003600082815260200190815260200160002060009054906101000a900473ffffffffffffffffffffffffffffffffffffffff16828281518110620004b457fe5b602002602001019073ffffffffffffffffffffffffffffffffffffffff16908173ffffffffffffffffffffffffffffffffffffffff1681525050808060010191505062000468565b508091505090565b6000806200051162000844565b9050600087878787338860405162000529906200085f565b808781526020018060200180602001806020018673ffffffffffffffffffffffffffffffffffffffff1673ffffffffffffffffffffffffffffffffffffffff168152602001858152602001848103845289818151815260200191508051906020019080838360005b83811015620005ae57808201518184015260208101905062000591565b50505050905090810190601f168015620005dc5780820380516001836020036101000a031916815260200191505b50848103835288818151815260200191508051906020019080838360005b8381101562000617578082015181840152602081019050620005fa565b50505050905090810190601f168015620006455780820380516001836020036101000a031916815260200191505b50848103825287818151815260200191508051906020019080838360005b838110156200068057808201518184015260208101905062000663565b50505050905090810190601f168015620006ae5780820380516001836020036101000a031916815260200191505b509950505050505050505050604051809103906000f080158015620006d7573d6000803e3d6000fd5b509050806003600084815260200190815260200160002060006101000a81548173ffffffffffffffffffffffffffffffffffffffff021916908373ffffffffffffffffffffffffffffffffffffffff16021790555060018190806001815401808255809150509060018203906000526020600020016000909192909190916101000a81548173ffffffffffffffffffffffffffffffffffffffff021916908373ffffffffffffffffffffffffffffffffffffffff160217905550507fc4bc01f47a19781fccedb7a2aee3081cf40e99b391ef3dca5e0c7eec6af81ddc8133600180549050604051808473ffffffffffffffffffffffffffffffffffffffff1673ffffffffffffffffffffffffffffffffffffffff1681526020018373ffffffffffffffffffffffffffffffffffffffff1673ffffffffffffffffffffffffffffffffffffffff168152602001828152602001935050505060405180910390a1809250505095945050505050565b60008060008154809291906001019190505550600054905090565b611fcd806200086e8339019056fe608060405260006005553480156200001657600080fd5b5060405162001fcd38038062001fcd83398181016040526200003c9190810190620002f3565b603584511462000083576040517f08c379a00000000000000000000000000000000000000000000000000000000081526004016200007a90620004a4565b60405180910390fd5b6040835114620000ca576040517f08c379a0000000000000000000000000000000000000000000000000000000008152600401620000c190620004c6565b60405180910390fd5b42600381905550336000806101000a81548173ffffffffffffffffffffffffffffffffffffffff021916908373ffffffffffffffffffffffffffffffffffffffff16021790555081600160006101000a81548173ffffffffffffffffffffffffffffffffffffffff021916908373ffffffffffffffffffffffffffffffffffffffff160217905550603c8102600281905550846008908051906020019062000174929190620001ba565b5085600481905550836006908051906020019062000194929190620001ba565b508260079080519060200190620001ad929190620001ba565b50505050505050620005fc565b828054600181600116156101000203166002900490600052602060002090601f016020900481019282601f10620001fd57805160ff19168380011785556200022e565b828001600101855582156200022e579182015b828111156200022d57825182559160200191906001019062000210565b5b5090506200023d919062000241565b5090565b6200026691905b808211156200026257600081600090555060010162000248565b5090565b90565b6000815190506200027a81620005c8565b92915050565b600082601f8301126200029257600080fd5b8151620002a9620002a38262000516565b620004e8565b91508082526020830160208301858383011115620002c657600080fd5b620002d383828462000592565b50505092915050565b600081519050620002ed81620005e2565b92915050565b60008060008060008060c087890312156200030d57600080fd5b60006200031d89828a01620002dc565b965050602087015167ffffffffffffffff8111156200033b57600080fd5b6200034989828a0162000280565b955050604087015167ffffffffffffffff8111156200036757600080fd5b6200037589828a0162000280565b945050606087015167ffffffffffffffff8111156200039357600080fd5b620003a189828a0162000280565b9350506080620003b489828a0162000269565b92505060a0620003c789828a01620002dc565b9150509295509295509295565b6000620003e3603f8362000543565b91507f4950465320555249206d757374206265206120737472696e67206f66206c656e60008301527f6774682035332028697066733a2f2f202b2034362063686172206861736829006020830152604082019050919050565b60006200044b60408362000543565b91507f526571756972656d656e74732068617368206d7573742062652061207374726960008301527f6e67206f66206c656e67746820363420286b656b6b616b3235362873747229296020830152604082019050919050565b60006020820190508181036000830152620004bf81620003d4565b9050919050565b60006020820190508181036000830152620004e1816200043c565b9050919050565b6000604051905081810181811067ffffffffffffffff821117156200050c57600080fd5b8060405250919050565b600067ffffffffffffffff8211156200052e57600080fd5b601f19601f8301169050602081019050919050565b600082825260208201905092915050565b6000620005618262000568565b9050919050565b600073ffffffffffffffffffffffffffffffffffffffff82169050919050565b6000819050919050565b60005b83811015620005b257808201518184015260208101905062000595565b83811115620005c2576000848401525b50505050565b620005d38162000554565b8114620005df57600080fd5b50565b620005ed8162000588565b8114620005f957600080fd5b50565b6119c1806200060c6000396000f3fe608060405234801561001057600080fd5b50600436106100935760003560e01c80634383187d116100665780634383187d146101205780637e50bb831461013c578063a3bc93361461015a578063a9c2e36c14610178578063c8e210251461019657610093565b8063101e30f41461009857806311533981146100c857806332f098b1146100e45780633f152d4e14610102575b600080fd5b6100b260048036036100ad9190810190611248565b6101c7565b6040516100bf9190611846565b60405180910390f35b6100e260048036036100dd91908101906112c3565b6102d2565b005b6100ec61073f565b6040516100f99190611700565b60405180910390f35b61010a610769565b6040516101179190611861565b60405180910390f35b61013a6004803603610135919081019061129a565b61099f565b005b610144610bf9565b6040516101519190611744565b60405180910390f35b610162610ce5565b60405161016f9190611861565b60405180910390f35b610180610da6565b60405161018d9190611700565b60405180910390f35b6101b060048036036101ab9190810190611271565b610dcf565b6040516101be92919061171b565b60405180910390f35b6101cf61113f565b600f60008373ffffffffffffffffffffffffffffffffffffffff1673ffffffffffffffffffffffffffffffffffffffff1681526020019081526020016000206040518060a0016040529081600082015481526020016001820160009054906101000a900460ff16600281111561024157fe5b600281111561024c57fe5b81526020016001820160019054906101000a900473ffffffffffffffffffffffffffffffffffffffff1673ffffffffffffffffffffffffffffffffffffffff1673ffffffffffffffffffffffffffffffffffffffff168152602001600282015481526020016003820160009054906101000a900460ff1615151515815250509050919050565b60025460035401421061031a576040517f08c379a000000000000000000000000000000000000000000000000000000000815260040161031190611786565b60405180910390fd5b60028081111561032657fe5b600160149054906101000a900460ff16600281111561034157fe5b1415610382576040517f08c379a0000000000000000000000000000000000000000000000000000000008152600401610379906117e6565b60405180910390fd5b600f60003373ffffffffffffffffffffffffffffffffffffffff1673ffffffffffffffffffffffffffffffffffffffff16815260200190815260200160002060030160009054906101000a900460ff1615610412576040517f08c379a0000000000000000000000000000000000000000000000000000000008152600401610409906117c6565b60405180910390fd5b600081600281111561042057fe5b905060006010600083815260200190815260200160002080549050111561049357600061044c83610dcf565b915050838111610491576040517f08c379a000000000000000000000000000000000000000000000000000000000815260040161048890611806565b60405180910390fd5b505b600061049d611123565b90506104a761113f565b6040518060a001604052808681526020018560028111156104c457fe5b81526020013373ffffffffffffffffffffffffffffffffffffffff16815260200183815260200160011515815250905080600f60003373ffffffffffffffffffffffffffffffffffffffff1673ffffffffffffffffffffffffffffffffffffffff1681526020019081526020016000206000820151816000015560208201518160010160006101000a81548160ff0219169083600281111561056257fe5b021790555060408201518160010160016101000a81548173ffffffffffffffffffffffffffffffffffffffff021916908373ffffffffffffffffffffffffffffffffffffffff1602179055506060820151816002015560808201518160030160006101000a81548160ff021916908315150217905550905050601060008481526020019081526020016000203390806001815401808255809150509060018203906000526020600020016000909192909190916101000a81548173ffffffffffffffffffffffffffffffffffffffff021916908373ffffffffffffffffffffffffffffffffffffffff160217905550506011604051806060016040528087815260200186600281111561067157fe5b81526020013373ffffffffffffffffffffffffffffffffffffffff16815250908060018154018082558091505090600182039060005260206000209060020201600090919290919091506000820151816000015560208201518160010160006101000a81548160ff021916908360028111156106e957fe5b021790555060408201518160010160016101000a81548173ffffffffffffffffffffffffffffffffffffffff021916908373ffffffffffffffffffffffffffffffffffffffff1602179055505050505050505050565b6000600160009054906101000a900473ffffffffffffffffffffffffffffffffffffffff16905090565b610771611191565b600160009054906101000a900473ffffffffffffffffffffffffffffffffffffffff1673ffffffffffffffffffffffffffffffffffffffff163373ffffffffffffffffffffffffffffffffffffffff1614610801576040517f08c379a00000000000000000000000000000000000000000000000000000000081526004016107f890611826565b60405180910390fd5b60028081111561080d57fe5b600160149054906101000a900460ff16600281111561082857fe5b1415610869576040517f08c379a000000000000000000000000000000000000000000000000000000000815260040161086090611766565b60405180910390fd5b6002600160146101000a81548160ff0219169083600281111561088857fe5b0217905550610895611191565b61089d610ce5565b905080600960008201518160000160006101000a81548173ffffffffffffffffffffffffffffffffffffffff021916908373ffffffffffffffffffffffffffffffffffffffff16021790555060208201518160010160006101000a81548173ffffffffffffffffffffffffffffffffffffffff021916908373ffffffffffffffffffffffffffffffffffffffff16021790555060408201518160020160006101000a81548173ffffffffffffffffffffffffffffffffffffffff021916908373ffffffffffffffffffffffffffffffffffffffff160217905550606082015181600301556080820151816004015560a082015181600501559050508091505090565b6002546003540142106109e7576040517f08c379a00000000000000000000000000000000000000000000000000000000081526004016109de90611786565b60405180910390fd5b6002808111156109f357fe5b600160149054906101000a900460ff166002811115610a0e57fe5b1415610a4f576040517f08c379a0000000000000000000000000000000000000000000000000000000008152600401610a46906117e6565b60405180910390fd5b6000600f60003373ffffffffffffffffffffffffffffffffffffffff1673ffffffffffffffffffffffffffffffffffffffff1681526020019081526020016000209050600080610aaf8360010160009054906101000a900460ff16610dcf565b915091503373ffffffffffffffffffffffffffffffffffffffff168273ffffffffffffffffffffffffffffffffffffffff16141580610aed57508381115b15610bf357838360000181905550601160405180606001604052808681526020018560010160009054906101000a900460ff166002811115610b2b57fe5b81526020013373ffffffffffffffffffffffffffffffffffffffff16815250908060018154018082558091505090600182039060005260206000209060020201600090919290919091506000820151816000015560208201518160010160006101000a81548160ff02191690836002811115610ba357fe5b021790555060408201518160010160016101000a81548173ffffffffffffffffffffffffffffffffffffffff021916908373ffffffffffffffffffffffffffffffffffffffff1602179055505050505b50505050565b60606011805480602002602001604051908101604052809291908181526020016000905b82821015610cdc5783829060005260206000209060020201604051806060016040529081600082015481526020016001820160009054906101000a900460ff166002811115610c6857fe5b6002811115610c7357fe5b81526020016001820160019054906101000a900473ffffffffffffffffffffffffffffffffffffffff1673ffffffffffffffffffffffffffffffffffffffff1673ffffffffffffffffffffffffffffffffffffffff168152505081526020019060010190610c1d565b50505050905090565b610ced611191565b600080610cfa6000610dcf565b91509150600080610d0b6002610dcf565b91509150600080610d1c6001610dcf565b91509150610d28611191565b6040518060c001604052808873ffffffffffffffffffffffffffffffffffffffff1681526020018673ffffffffffffffffffffffffffffffffffffffff1681526020018473ffffffffffffffffffffffffffffffffffffffff1681526020018781526020018581526020018381525090508097505050505050505090565b60008060009054906101000a900473ffffffffffffffffffffffffffffffffffffffff16905090565b600080600080846002811115610de157fe5b9050600080601060008481526020019081526020016000208054905011610e3d576040517f08c379a0000000000000000000000000000000000000000000000000000000008152600401610e34906117a6565b60405180910390fd5b600f600060106000858152602001908152602001600020600081548110610e6057fe5b9060005260206000200160009054906101000a900473ffffffffffffffffffffffffffffffffffffffff1673ffffffffffffffffffffffffffffffffffffffff1673ffffffffffffffffffffffffffffffffffffffff168152602001908152602001600020600001549250600f600060106000858152602001908152602001600020600081548110610eee57fe5b9060005260206000200160009054906101000a900473ffffffffffffffffffffffffffffffffffffffff1673ffffffffffffffffffffffffffffffffffffffff1673ffffffffffffffffffffffffffffffffffffffff16815260200190815260200160002060010160019054906101000a900473ffffffffffffffffffffffffffffffffffffffff16905060008090505b601060008481526020019081526020016000208054905081101561111457610fa561113f565b600f6000601060008781526020019081526020016000208481548110610fc757fe5b9060005260206000200160009054906101000a900473ffffffffffffffffffffffffffffffffffffffff1673ffffffffffffffffffffffffffffffffffffffff1673ffffffffffffffffffffffffffffffffffffffff1681526020019081526020016000206040518060a0016040529081600082015481526020016001820160009054906101000a900460ff16600281111561105f57fe5b600281111561106a57fe5b81526020016001820160019054906101000a900473ffffffffffffffffffffffffffffffffffffffff1673ffffffffffffffffffffffffffffffffffffffff1673ffffffffffffffffffffffffffffffffffffffff168152602001600282015481526020016003820160009054906101000a900460ff161515151581525050905084816000015110156111065780600001519450806040015192505b508080600101915050610f7f565b50808394509450505050915091565b6000600560008154809291906001019190505550600554905090565b6040518060a00160405280600081526020016000600281111561115e57fe5b8152602001600073ffffffffffffffffffffffffffffffffffffffff168152602001600081526020016000151581525090565b6040518060c00160405280600073ffffffffffffffffffffffffffffffffffffffff168152602001600073ffffffffffffffffffffffffffffffffffffffff168152602001600073ffffffffffffffffffffffffffffffffffffffff1681526020016000815260200160008152602001600081525090565b60008135905061121881611940565b92915050565b60008135905061122d81611957565b92915050565b60008135905061124281611967565b92915050565b60006020828403121561125a57600080fd5b600061126884828501611209565b91505092915050565b60006020828403121561128357600080fd5b60006112918482850161121e565b91505092915050565b6000602082840312156112ac57600080fd5b60006112ba84828501611233565b91505092915050565b600080604083850312156112d657600080fd5b60006112e485828601611233565b92505060206112f58582860161121e565b9150509250929050565b600061130b83836115bd565b60608301905092915050565b611320816118c6565b82525050565b61132f816118c6565b82525050565b60006113408261188c565b61134a81856118a4565b93506113558361187c565b8060005b8381101561138657815161136d88826112ff565b975061137883611897565b925050600181019050611359565b5085935050505092915050565b61139c816118d8565b82525050565b6113ab81611921565b82525050565b60006113be601c836118b5565b91507f41756374696f6e20697320616c72656164792066696e69736865642e000000006000830152602082019050919050565b60006113fe601e836118b5565b91507f41756374696f6e2069732066696e6973686564202874696d656f7574292e00006000830152602082019050919050565b600061143e6028836118b5565b91507f4e6f2070726f7669646572732079657420666f722070726f766964656420646160008301527f746120747970652e0000000000000000000000000000000000000000000000006020830152604082019050919050565b60006114a46013836118b5565b91507f42696420616c7265616479206578697374732e000000000000000000000000006000830152602082019050919050565b60006114e46014836118b5565b91507f41756374696f6e2069732066696e69736865642e0000000000000000000000006000830152602082019050919050565b6000611524601c836118b5565b91507f41206265747465722062696420616c7265616479206578697374732e000000006000830152602082019050919050565b60006115646021836118b5565b91507f6d73672e73656e646572206e6f74206f776e6572206f6620636f6e747261637460008301527f2e000000000000000000000000000000000000000000000000000000000000006020830152604082019050919050565b6060820160008201516115d360008501826116e2565b5060208201516115e660208501826113a2565b5060408201516115f96040850182611317565b50505050565b60a08201600082015161161560008501826116e2565b50602082015161162860208501826113a2565b50604082015161163b6040850182611317565b50606082015161164e60608501826116e2565b5060808201516116616080850182611393565b50505050565b60c08201600082015161167d6000850182611317565b5060208201516116906020850182611317565b5060408201516116a36040850182611317565b5060608201516116b660608501826116e2565b5060808201516116c960808501826116e2565b5060a08201516116dc60a08501826116e2565b50505050565b6116eb81611917565b82525050565b6116fa81611917565b82525050565b60006020820190506117156000830184611326565b92915050565b60006040820190506117306000830185611326565b61173d60208301846116f1565b9392505050565b6000602082019050818103600083015261175e8184611335565b905092915050565b6000602082019050818103600083015261177f816113b1565b9050919050565b6000602082019050818103600083015261179f816113f1565b9050919050565b600060208201905081810360008301526117bf81611431565b9050919050565b600060208201905081810360008301526117df81611497565b9050919050565b600060208201905081810360008301526117ff816114d7565b9050919050565b6000602082019050818103600083015261181f81611517565b9050919050565b6000602082019050818103600083015261183f81611557565b9050919050565b600060a08201905061185b60008301846115ff565b92915050565b600060c0820190506118766000830184611667565b92915050565b6000819050602082019050919050565b600081519050919050565b6000602082019050919050565b600082825260208201905092915050565b600082825260208201905092915050565b60006118d1826118f7565b9050919050565b60008115159050919050565b60008190506118f282611933565b919050565b600073ffffffffffffffffffffffffffffffffffffffff82169050919050565b6000819050919050565b600061192c826118e4565b9050919050565b6003811061193d57fe5b50565b611949816118c6565b811461195457600080fd5b50565b6003811061196457600080fd5b50565b61197081611917565b811461197b57600080fd5b5056fea365627a7a7231582001554ab4c1345663d64f018a0068ccfe7b9ea33abad5c66b705a801d56944e926c6578706572696d656e74616cf564736f6c63430005100040a265627a7a7231582024920c31d766086a6e6bad7a4129712391a7b213478f97a524b8abae5a8ea09164736f6c634300051000324f6e746f6c6f6779204950465320555249206d757374206265206120737472696e67206f66206c656e6774682035332028697066733a2f2f202b2034362063686172206861736829",
  "source": "// SPDX-License-Identifier: GPL-3.0\n\npragma solidity >=0.5.0;\n//pragma experimental ABIEncoderV2;\n\nimport \"./Auction.sol\";\n\n//Factory est un rpertoire contenant toutes les Auction ==> de manire  pouvoir y accder plus tard\n\n\ncontract Factory {\n\n    uint uniqueIdCounter = 0;\n\n    //ARRAY\n    address[] public auctionAddresses;\n    // ontologyURI is an IPFS URI\n    string ontologyURI;\n    mapping (uint => Auction) auctionStore;\n\n    event auctionCreated(address auctionContract, address owner, uint auctionID);\n\n\n    constructor(string memory _ontologyURI) public { //string memory _ontologyURI\n        require(bytes(_ontologyURI).length == 53, \"Ontology IPFS URI must be a string of length 53 (ipfs:// + 46 char hash)\");\n        ontologyURI = _ontologyURI;\n    }\n\n\n    function createAuction(uint _maxPrice, string memory _currency, string memory _ipfsURI, string memory _requirementsHash, uint _duration) public returns (address auctionAddress) {\n\n        uint newId = generateUniqueId();\n\n        Auction auctionObject = new Auction(\n                _maxPrice,\n                _currency,\n                _ipfsURI,\n                _requirementsHash,\n                msg.sender,\n                _duration\n            );\n\n        auctionStore[newId] = auctionObject; //mapping or array ?\n        auctionAddresses.push(address(auctionObject));\n        emit auctionCreated(address(auctionObject), msg.sender, auctionAddresses.length); //send event\n\n        return address(auctionObject);\n    }\n\n    function generateUniqueId() private returns(uint) {\n        uniqueIdCounter++;\n        return uniqueIdCounter;\n    }\n\n    function getAuction(uint _auctionId) public view returns (Auction) {\n        //Ajouter un require\n        return auctionStore[_auctionId];\n    }\n\n  function getAllAuctions() public view returns (address[] memory) {\n    address [] memory arrayAuctions;\n      for (uint i = 0; i < uniqueIdCounter; i++ ) {\n          arrayAuctions[i] = address(auctionStore[i]);\n      }\n      return arrayAuctions;\n  }\n\n}\n",
  "sourcePath": "/Users/andrealocelso/mkt/contracts/Factory.sol",
  "compiler": {
    "name": "solc",
    "version": "0.5.16+commit.9c3226ce.Emscripten.clang"
  },
  "schemaVersion": "3.4.1",
  "updatedAt": "2021-05-24T16:14:14.127Z",
  "devdoc": {
    "methods": {}
  },
  "userdoc": {
    "methods": {}
  }
}